:020000020000FC
:0200000017C027
:1000200000010302070604050F0E0C0D08090B0A58
:100030000FEF0DBF08E00EBFA0E2B0E0C0E3D0E0DC
:10004000FD010EE10AB907E004B90FE007B9002786
:100050001127222709B10695F801EA0F2491022FF2
:1000600088E073E060E311272227001F111F221F81
:100070008A9569F0912F9F70953008F0170F903591
:1000800008F0160F9F70903580F3270FEECF28B938
:1000900004E005B90BD00695129518B905B906D03C
:1000A0000695129518B905B901D0D1CF35E147ECC5
:0A00B0004A95F1F73A95E1F708953B
:00000001FF
